:020000040800F2
:100000001004002065010008BD010008B5010008CA
:10001000B9010008AD0100080D0300080000000050
:10002000000000000000000000000000D5010008F2
:10003000B101000800000000D1010008050200081D
:100040007F0100087F0100087F0100087F01000890
:100050007F0100087F0100087F0100087F01000880
:100060007F0100087F0100087F0100087F01000870
:100070007F0100087F0100087F0100087F01000860
:100080007F0100087F0100087F0100087F01000850
:100090007F0100087F0100087F0100087F01000840
:1000A0007F0100087F0100087F0100087F01000830
:1000B0007F0100087F0100087F0100087F01000820
:1000C0007F0100087F0100087F0100087F01000810
:1000D0007F0100087F0100087F0100087F01000800
:1000E0007F0100087F0100087F0100087F010008F0
:1000F0007F0100087F0100087F0100080000000068
:100100007F010008000000007F0100087F01000857
:100110007F0100087F0100087F0100087F010008BF
:100120007F0100087F0100087F0100087F010008AF
:100130007F0100087F0100087F0100087F0100089F
:100140007F0100087F0100087F0100087F0100088F
:10015000DFF80CD000F018F8004800476D030008E5
:10016000100400200648804706480047FEE7FEE7E7
:10017000FEE7FEE7FEE7FEE7FEE7FEE7FEE7FEE757
:100180000D02000851010008064C074D06E0E0682A
:1001900040F0010394E8070098471034AC42F6D3CE
:1001A000FFF7DAFFE004000800050008FEE70000A2
:1001B000FEE70000FEE70000FEE70000FEE70000AB
:1001C0004EF623510001CEF2000108707047000086
:1001D000FEE70000FEE70000B0B501380024B4EBF4
:1001E000106F1CBF0120B0BD4EF21005CEF200050D
:1001F00068600F20FFF7E4FF0720AC60286020460E
:10020000B0BD000080B500F09FF880BD10B582B091
:1002100041F20004C4F20204206840F001002060B2
:1002200020688007FCD5606800F00C00082839D1F0
:100230000020019001994F2906D800BF0199013192
:10024000019101995029F9D361680091009921F039
:10025000F0010091009941F08001009100996160E6
:10026000019001984F2805D801980130019001981C
:100270005028F9D360680090009820F0F0000090BA
:10028000009840F09000009000986060002001907D
:1002900001984F2806D800BF0198013001900198BD
:1002A0005028F9D3606820F00300606000F030F857
:1002B00020684FF6FF71CFF6F66108402060606855
:1002C0000C22CEF2FF021040606020684FF6FF72F1
:1002D000084020602068CDF6007220F48020206065
:1002E000606801F16C41104060600020E0622068AD
:1002F000084020604FF47F00A06000F0C9F84FF084
:100300000060002100F04EF802B010BDFEE70000D2
:1003100081B0002000900098C0087C2807D800BF5A
:100320000098013000900098B0F57A7FF8D301B0C2
:100330007047000040F20801C2F20001086000BFEF
:1003400008680028FCD1704740F20800C2F20000A3
:100350000168002908BF70470168013901607047D2
:100360001023002A08BF14231950704741F20004DB
:10037000C4F2010400F090F820464FF4005101222D
:10038000FFF7EEFF4FF4FA70FFF7D4FF20464FF46B
:1003900000510022FFF7E4FF4FF4FA70FFF7CAFFA5
:1003A000EAE700004FF68072C1F6FF721140084381
:1003B0004EF60851CEF200010860BFF34F8F704730
:1003C00081B041F20400C4F2020050F8041C41F470
:1003D000803140F8041C4FF6FE7100BF50F8043C19
:1003E0004A1E8A4203D213F400311146F6D050F867
:1003F000041C890301D400BFFEE701684FF6FF72B9
:1004000001600168CDF6C3720160016841F480614A
:10041000016001681140016001684FF2000241F083
:10042000005141F424110160816ACFF6FE7211403F
:100430008162816A41F4833141F04901816250F85F
:10044000041C41F0806140F8041C00BF50F8041CFB
:100450000901FBD550F8041C41F0807140F8041CE0
:1004600050F8041C8901FBD501680091009921F026
:1004700003010091009941F002010091009901608F
:10048000016801F00C010829FAD101B070470000A1
:1004900080B5FFF795FF80BD80B540F20000C2F245
:1004A0000000006844F6D351C1F26201A0FB0101D3
:1004B0008809FFF791FE00B1FEE70020FFF780FEFC
:1004C00080BD02E008C8121F08C1002AFAD1704797
:1004D0007047002001E001C1121F002AFBD17047C4
:1004E000000500080000002008000000C204000809
:1004F000080500080800002008040000D2040008D5
:0805000000F36F06000000008B
:04000005080001519D
:00000001FF
